{
  "contractName": "Contrat",
  "abi": [
    {
      "constant": true,
      "inputs": [],
      "name": "signedByWife",
      "outputs": [
        {
          "name": "",
          "type": "bool"
        }
      ],
      "payable": false,
      "stateMutability": "view",
      "type": "function"
    },
    {
      "constant": true,
      "inputs": [],
      "name": "husbandAddress",
      "outputs": [
        {
          "name": "",
          "type": "address"
        }
      ],
      "payable": false,
      "stateMutability": "view",
      "type": "function"
    },
    {
      "constant": true,
      "inputs": [],
      "name": "signed",
      "outputs": [
        {
          "name": "",
          "type": "bool"
        }
      ],
      "payable": false,
      "stateMutability": "view",
      "type": "function"
    },
    {
      "constant": true,
      "inputs": [],
      "name": "divorced",
      "outputs": [
        {
          "name": "",
          "type": "bool"
        }
      ],
      "payable": false,
      "stateMutability": "view",
      "type": "function"
    },
    {
      "constant": true,
      "inputs": [],
      "name": "wifeAddress",
      "outputs": [
        {
          "name": "",
          "type": "address"
        }
      ],
      "payable": false,
      "stateMutability": "view",
      "type": "function"
    },
    {
      "constant": true,
      "inputs": [],
      "name": "dateDep",
      "outputs": [
        {
          "name": "",
          "type": "uint256"
        }
      ],
      "payable": false,
      "stateMutability": "view",
      "type": "function"
    },
    {
      "constant": true,
      "inputs": [],
      "name": "signedByHusband",
      "outputs": [
        {
          "name": "",
          "type": "bool"
        }
      ],
      "payable": false,
      "stateMutability": "view",
      "type": "function"
    },
    {
      "constant": true,
      "inputs": [],
      "name": "dateSig",
      "outputs": [
        {
          "name": "",
          "type": "uint256"
        }
      ],
      "payable": false,
      "stateMutability": "view",
      "type": "function"
    },
    {
      "inputs": [
        {
          "name": "_husbandAddress",
          "type": "address"
        },
        {
          "name": "_wifeAddress",
          "type": "address"
        }
      ],
      "payable": false,
      "stateMutability": "nonpayable",
      "type": "constructor"
    },
    {
      "payable": true,
      "stateMutability": "payable",
      "type": "fallback"
    },
    {
      "anonymous": false,
      "inputs": [
        {
          "indexed": false,
          "name": "timestamp",
          "type": "uint256"
        },
        {
          "indexed": false,
          "name": "wallet",
          "type": "address"
        }
      ],
      "name": "Signed",
      "type": "event"
    },
    {
      "anonymous": false,
      "inputs": [
        {
          "indexed": false,
          "name": "timestamp",
          "type": "uint256"
        }
      ],
      "name": "ContractSigned",
      "type": "event"
    },
    {
      "anonymous": false,
      "inputs": [
        {
          "indexed": false,
          "name": "timestamp",
          "type": "uint256"
        },
        {
          "indexed": false,
          "name": "wallet",
          "type": "address"
        }
      ],
      "name": "DivorceApproved",
      "type": "event"
    },
    {
      "anonymous": false,
      "inputs": [
        {
          "indexed": false,
          "name": "timestamp",
          "type": "uint256"
        }
      ],
      "name": "Divorced",
      "type": "event"
    },
    {
      "anonymous": false,
      "inputs": [
        {
          "indexed": false,
          "name": "timestamp",
          "type": "uint256"
        }
      ],
      "name": "DivorcedUni",
      "type": "event"
    },
    {
      "anonymous": false,
      "inputs": [
        {
          "indexed": false,
          "name": "timestamp",
          "type": "uint256"
        },
        {
          "indexed": false,
          "name": "wallet",
          "type": "address"
        },
        {
          "indexed": false,
          "name": "amount",
          "type": "uint256"
        }
      ],
      "name": "FundsSent",
      "type": "event"
    },
    {
      "anonymous": false,
      "inputs": [
        {
          "indexed": false,
          "name": "timestamp",
          "type": "uint256"
        },
        {
          "indexed": false,
          "name": "wallet",
          "type": "address"
        },
        {
          "indexed": false,
          "name": "amount",
          "type": "uint256"
        }
      ],
      "name": "FundsReceived",
      "type": "event"
    },
    {
      "constant": false,
      "inputs": [],
      "name": "signContract",
      "outputs": [],
      "payable": false,
      "stateMutability": "nonpayable",
      "type": "function"
    },
    {
      "constant": false,
      "inputs": [
        {
          "name": "_to",
          "type": "address"
        },
        {
          "name": "_amount",
          "type": "uint256"
        }
      ],
      "name": "pay",
      "outputs": [],
      "payable": false,
      "stateMutability": "nonpayable",
      "type": "function"
    },
    {
      "constant": false,
      "inputs": [],
      "name": "divorce",
      "outputs": [],
      "payable": false,
      "stateMutability": "nonpayable",
      "type": "function"
    },
    {
      "constant": false,
      "inputs": [],
      "name": "UnilateralDivorce",
      "outputs": [],
      "payable": false,
      "stateMutability": "nonpayable",
      "type": "function"
    }
  ],
  "bytecode": "0x60806040524260005560006001556000600260006101000a81548160ff0219169083151502179055506000600260016101000a81548160ff02191690831515021790555060006002806101000a81548160ff0219169083151502179055506000600260036101000a81548160ff02191690831515021790555034801561008457600080fd5b506040516040806120058339810180604052810190808051906020019092919080519060200190929190505050600073ffffffffffffffffffffffffffffffffffffffff168273ffffffffffffffffffffffffffffffffffffffff1614151515610156576040517f08c379a000000000000000000000000000000000000000000000000000000000815260040180806020018281038252601c8152602001807f41647265737365206e6520646f6974207061732065747265206e756c0000000081525060200191505060405180910390fd5b600073ffffffffffffffffffffffffffffffffffffffff168173ffffffffffffffffffffffffffffffffffffffff16141515156101fb576040517f08c379a000000000000000000000000000000000000000000000000000000000815260040180806020018281038252601c8152602001807f41647265737365206e6520646f6974207061732065747265206e756c0000000081525060200191505060405180910390fd5b8073ffffffffffffffffffffffffffffffffffffffff168273ffffffffffffffffffffffffffffffffffffffff161415151561029f576040517f08c379a000000000000000000000000000000000000000000000000000000000815260040180806020018281038252600c8152602001807f4d656d652061647265737365000000000000000000000000000000000000000081525060200191505060405180910390fd5b81600560006101000a81548173ffffffffffffffffffffffffffffffffffffffff021916908373ffffffffffffffffffffffffffffffffffffffff16021790555080600660006101000a81548173ffffffffffffffffffffffffffffffffffffffff021916908373ffffffffffffffffffffffffffffffffffffffff1602179055505050611cd3806103326000396000f3006080604052600436106100ba576000357c0100000000000000000000000000000000000000000000000000000000900463ffffffff168063192b3ca2146102ab5780631c7d5c42146102da578063232a6b9d14610331578063470ea05e14610360578063528e2ee9146103775780637399a259146103a6578063b71fe0bc146103fd578063b8b4f1a014610428578063c40768761461043f578063d4df16d41461048c578063dc7b5ed0146104bb578063dff44b2f146104e6575b60011515600260019054906101000a900460ff16151514806100ee5750600115156002809054906101000a900460ff161515145b151561013d576040517f08c379a0000000000000000000000000000000000000000000000000000000008152600401808060200182810382526000815260200160200191505060405180910390fd5b600260019054906101000a900460ff16801561016457506002809054906101000a900460ff165b15610185576001600260006101000a81548160ff0219169083151502179055505b60001515600260039054906101000a900460ff161515141515610236576040517f08c379a00000000000000000000000000000000000000000000000000000000081526004018080602001828103825260328152602001807f43616e206e6f742062652063616c6c65642061667465722073706f757365732081526020017f61677265656420746f206469766f72636521000000000000000000000000000081525060400191505060405180910390fd5b7ffb932f39cc5ea177af75a4f1502d59d13404be49a2edb139943b43e4fb3fe45b423334604051808481526020018373ffffffffffffffffffffffffffffffffffffffff1673ffffffffffffffffffffffffffffffffffffffff168152602001828152602001935050505060405180910390a1005b3480156102b757600080fd5b506102c06104fd565b604051808215151515815260200191505060405180910390f35b3480156102e657600080fd5b506102ef61050f565b604051808273ffffffffffffffffffffffffffffffffffffffff1673ffffffffffffffffffffffffffffffffffffffff16815260200191505060405180910390f35b34801561033d57600080fd5b50610346610535565b604051808215151515815260200191505060405180910390f35b34801561036c57600080fd5b50610375610548565b005b34801561038357600080fd5b5061038c610bab565b604051808215151515815260200191505060405180910390f35b3480156103b257600080fd5b506103bb610bbe565b604051808273ffffffffffffffffffffffffffffffffffffffff1673ffffffffffffffffffffffffffffffffffffffff16815260200191505060405180910390f35b34801561040957600080fd5b50610412610be4565b6040518082815260200191505060405180910390f35b34801561043457600080fd5b5061043d610bea565b005b34801561044b57600080fd5b5061048a600480360381019080803573ffffffffffffffffffffffffffffffffffffffff169060200190929190803590602001909291905050506110d9565b005b34801561049857600080fd5b506104a161153f565b604051808215151515815260200191505060405180910390f35b3480156104c757600080fd5b506104d0611552565b6040518082815260200191505060405180910390f35b3480156104f257600080fd5b506104fb611558565b005b6002809054906101000a900460ff1681565b600560009054906101000a900473ffffffffffffffffffffffffffffffffffffffff1681565b600260009054906101000a900460ff1681565b600080600560009054906101000a900473ffffffffffffffffffffffffffffffffffffffff1673ffffffffffffffffffffffffffffffffffffffff163373ffffffffffffffffffffffffffffffffffffffff1614806105f45750600660009054906101000a900473ffffffffffffffffffffffffffffffffffffffff1673ffffffffffffffffffffffffffffffffffffffff163373ffffffffffffffffffffffffffffffffffffffff16145b1515610643576040517f08c379a0000000000000000000000000000000000000000000000000000000008152600401808060200182810382526000815260200160200191505060405180910390fd5b60011515600260019054906101000a900460ff16151514806106775750600115156002809054906101000a900460ff161515145b15156106c6576040517f08c379a0000000000000000000000000000000000000000000000000000000008152600401808060200182810382526000815260200160200191505060405180910390fd5b600260019054906101000a900460ff1680156106ed57506002809054906101000a900460ff165b1561070e576001600260006101000a81548160ff0219169083151502179055505b60001515600260039054906101000a900460ff1615151415156107bf576040517f08c379a00000000000000000000000000000000000000000000000000000000081526004018080602001828103825260328152602001807f43616e206e6f742062652063616c6c65642061667465722073706f757365732081526020017f61677265656420746f206469766f72636521000000000000000000000000000081525060400191505060405180910390fd5b60001515600460003373ffffffffffffffffffffffffffffffffffffffff1673ffffffffffffffffffffffffffffffffffffffff16815260200190815260200160002060009054906101000a900460ff161515141515610862576040517f08c379a0000000000000000000000000000000000000000000000000000000008152600401808060200182810382526000815260200160200191505060405180910390fd5b6001600460003373ffffffffffffffffffffffffffffffffffffffff1673ffffffffffffffffffffffffffffffffffffffff16815260200190815260200160002060006101000a81548160ff0219169083151502179055507f55b62450d8ea779081e1216bc8db6e1dad18f927f9c844529af3c95f4a12efac4233604051808381526020018273ffffffffffffffffffffffffffffffffffffffff1673ffffffffffffffffffffffffffffffffffffffff1681526020019250505060405180910390a16001600260036101000a81548160ff0219169083151502179055507fbb563bc4f7abdbfcbf8ebb5a714ea1501eb97d2a71b012542515a1b6f613e2ba426040518082815260200191505060405180910390a13073ffffffffffffffffffffffffffffffffffffffff16319150600082141515610ba7576002828115156109a757fe5b049050600560009054906101000a900473ffffffffffffffffffffffffffffffffffffffff1673ffffffffffffffffffffffffffffffffffffffff166108fc829081150290604051600060405180830381858888f19350505050158015610a12573d6000803e3d6000fd5b507f545fa8e09b7aa32e41eb2a2ece3cdfb1e14707a7bc79c78e749c79ea6b544aee42600560009054906101000a900473ffffffffffffffffffffffffffffffffffffffff1683604051808481526020018373ffffffffffffffffffffffffffffffffffffffff1673ffffffffffffffffffffffffffffffffffffffff168152602001828152602001935050505060405180910390a1600660009054906101000a900473ffffffffffffffffffffffffffffffffffffffff1673ffffffffffffffffffffffffffffffffffffffff166108fc829081150290604051600060405180830381858888f19350505050158015610b10573d6000803e3d6000fd5b507f545fa8e09b7aa32e41eb2a2ece3cdfb1e14707a7bc79c78e749c79ea6b544aee42600660009054906101000a900473ffffffffffffffffffffffffffffffffffffffff1683604051808481526020018373ffffffffffffffffffffffffffffffffffffffff1673ffffffffffffffffffffffffffffffffffffffff168152602001828152602001935050505060405180910390a15b5050565b600260039054906101000a900460ff1681565b600660009054906101000a900473ffffffffffffffffffffffffffffffffffffffff1681565b60005481565b600560009054906101000a900473ffffffffffffffffffffffffffffffffffffffff1673ffffffffffffffffffffffffffffffffffffffff163373ffffffffffffffffffffffffffffffffffffffff161480610c935750600660009054906101000a900473ffffffffffffffffffffffffffffffffffffffff1673ffffffffffffffffffffffffffffffffffffffff163373ffffffffffffffffffffffffffffffffffffffff16145b1515610ce2576040517f08c379a0000000000000000000000000000000000000000000000000000000008152600401808060200182810382526000815260200160200191505060405180910390fd5b60001515600360003373ffffffffffffffffffffffffffffffffffffffff1673ffffffffffffffffffffffffffffffffffffffff16815260200190815260200160002060009054906101000a900460ff161515141515610daa576040517f08c379a00000000000000000000000000000000000000000000000000000000081526004018080602001828103825260128152602001807f436f6e747261742064656a61207369676e65000000000000000000000000000081525060200191505060405180910390fd5b6001600360003373ffffffffffffffffffffffffffffffffffffffff1673ffffffffffffffffffffffffffffffffffffffff16815260200190815260200160002060006101000a81548160ff0219169083151502179055507f80bc357386c693c2d6ad5938af6765eacd7d7790c17e39c014ab30def63941654233604051808381526020018273ffffffffffffffffffffffffffffffffffffffff1673ffffffffffffffffffffffffffffffffffffffff1681526020019250505060405180910390a160036000600560009054906101000a900473ffffffffffffffffffffffffffffffffffffffff1673ffffffffffffffffffffffffffffffffffffffff1673ffffffffffffffffffffffffffffffffffffffff16815260200190815260200160002060009054906101000a900460ff1615610f035760016002806101000a81548160ff021916908315150217905550426001819055505b60036000600660009054906101000a900473ffffffffffffffffffffffffffffffffffffffff1673ffffffffffffffffffffffffffffffffffffffff1673ffffffffffffffffffffffffffffffffffffffff16815260200190815260200160002060009054906101000a900460ff1615610f995760016002806101000a81548160ff021916908315150217905550426001819055505b60036000600660009054906101000a900473ffffffffffffffffffffffffffffffffffffffff1673ffffffffffffffffffffffffffffffffffffffff1673ffffffffffffffffffffffffffffffffffffffff16815260200190815260200160002060009054906101000a900460ff16801561107f575060036000600560009054906101000a900473ffffffffffffffffffffffffffffffffffffffff1673ffffffffffffffffffffffffffffffffffffffff1673ffffffffffffffffffffffffffffffffffffffff16815260200190815260200160002060009054906101000a900460ff165b156110d7576001600260006101000a81548160ff0219169083151502179055507faf3c49f5413fd292e2325b0fe214de144a222b00cb6ec21214fdc04b5d6c5913426040518082815260200191505060405180910390a15b565b600560009054906101000a900473ffffffffffffffffffffffffffffffffffffffff1673ffffffffffffffffffffffffffffffffffffffff163373ffffffffffffffffffffffffffffffffffffffff1614806111825750600660009054906101000a900473ffffffffffffffffffffffffffffffffffffffff1673ffffffffffffffffffffffffffffffffffffffff163373ffffffffffffffffffffffffffffffffffffffff16145b15156111d1576040517f08c379a0000000000000000000000000000000000000000000000000000000008152600401808060200182810382526000815260200160200191505060405180910390fd5b60011515600260019054906101000a900460ff16151514806112055750600115156002809054906101000a900460ff161515145b1515611254576040517f08c379a0000000000000000000000000000000000000000000000000000000008152600401808060200182810382526000815260200160200191505060405180910390fd5b600260019054906101000a900460ff16801561127b57506002809054906101000a900460ff165b1561129c576001600260006101000a81548160ff0219169083151502179055505b60001515600260039054906101000a900460ff16151514151561134d576040517f08c379a00000000000000000000000000000000000000000000000000000000081526004018080602001828103825260328152602001807f43616e206e6f742062652063616c6c65642061667465722073706f757365732081526020017f61677265656420746f206469766f72636521000000000000000000000000000081525060400191505060405180910390fd5b600073ffffffffffffffffffffffffffffffffffffffff168273ffffffffffffffffffffffffffffffffffffffff16141515156113f2576040517f08c379a00000000000000000000000000000000000000000000000000000000081526004018080602001828103825260178152602001807f46617574206d657474726520756e65206164726573736500000000000000000081525060200191505060405180910390fd5b3073ffffffffffffffffffffffffffffffffffffffff16318111151515611481576040517f08c379a00000000000000000000000000000000000000000000000000000000081526004018080602001828103825260128152602001807f536f6c646520696e737566666973616e7421000000000000000000000000000081525060200191505060405180910390fd5b8173ffffffffffffffffffffffffffffffffffffffff166108fc829081150290604051600060405180830381858888f193505050501580156114c7573d6000803e3d6000fd5b507f545fa8e09b7aa32e41eb2a2ece3cdfb1e14707a7bc79c78e749c79ea6b544aee428383604051808481526020018373ffffffffffffffffffffffffffffffffffffffff1673ffffffffffffffffffffffffffffffffffffffff168152602001828152602001935050505060405180910390a15050565b600260019054906101000a900460ff1681565b60015481565b600080600560009054906101000a900473ffffffffffffffffffffffffffffffffffffffff1673ffffffffffffffffffffffffffffffffffffffff163373ffffffffffffffffffffffffffffffffffffffff1614806116045750600660009054906101000a900473ffffffffffffffffffffffffffffffffffffffff1673ffffffffffffffffffffffffffffffffffffffff163373ffffffffffffffffffffffffffffffffffffffff16145b1515611653576040517f08c379a0000000000000000000000000000000000000000000000000000000008152600401808060200182810382526000815260200160200191505060405180910390fd5b60011515600260019054906101000a900460ff16151514806116875750600115156002809054906101000a900460ff161515145b15156116d6576040517f08c379a0000000000000000000000000000000000000000000000000000000008152600401808060200182810382526000815260200160200191505060405180910390fd5b600260019054906101000a900460ff1680156116fd57506002809054906101000a900460ff165b1561171e576001600260006101000a81548160ff0219169083151502179055505b60001515600260039054906101000a900460ff1615151415156117cf576040517f08c379a00000000000000000000000000000000000000000000000000000000081526004018080602001828103825260328152602001807f43616e206e6f742062652063616c6c65642061667465722073706f757365732081526020017f61677265656420746f206469766f72636521000000000000000000000000000081525060400191505060405180910390fd5b60001515600460003373ffffffffffffffffffffffffffffffffffffffff1673ffffffffffffffffffffffffffffffffffffffff16815260200190815260200160002060009054906101000a900460ff161515141515611872576040517f08c379a0000000000000000000000000000000000000000000000000000000008152600401808060200182810382526000815260200160200191505060405180910390fd5b6001600460003373ffffffffffffffffffffffffffffffffffffffff1673ffffffffffffffffffffffffffffffffffffffff16815260200190815260200160002060006101000a81548160ff0219169083151502179055507f55b62450d8ea779081e1216bc8db6e1dad18f927f9c844529af3c95f4a12efac4233604051808381526020018273ffffffffffffffffffffffffffffffffffffffff1673ffffffffffffffffffffffffffffffffffffffff1681526020019250505060405180910390a160046000600560009054906101000a900473ffffffffffffffffffffffffffffffffffffffff1673ffffffffffffffffffffffffffffffffffffffff1673ffffffffffffffffffffffffffffffffffffffff16815260200190815260200160002060009054906101000a900460ff168015611a1b575060046000600660009054906101000a900473ffffffffffffffffffffffffffffffffffffffff1673ffffffffffffffffffffffffffffffffffffffff1673ffffffffffffffffffffffffffffffffffffffff16815260200190815260200160002060009054906101000a900460ff165b15611ca3576001600260036101000a81548160ff0219169083151502179055507f839fd4d5fe25cf633a1c009dddc92264a0254dc22f07e958ccf709d0e4a3e6f6426040518082815260200191505060405180910390a13073ffffffffffffffffffffffffffffffffffffffff16319150600082141515611ca257600282811515611aa257fe5b049050600560009054906101000a900473ffffffffffffffffffffffffffffffffffffffff1673ffffffffffffffffffffffffffffffffffffffff166108fc829081150290604051600060405180830381858888f19350505050158015611b0d573d6000803e3d6000fd5b507f545fa8e09b7aa32e41eb2a2ece3cdfb1e14707a7bc79c78e749c79ea6b544aee42600560009054906101000a900473ffffffffffffffffffffffffffffffffffffffff1683604051808481526020018373ffffffffffffffffffffffffffffffffffffffff1673ffffffffffffffffffffffffffffffffffffffff168152602001828152602001935050505060405180910390a1600660009054906101000a900473ffffffffffffffffffffffffffffffffffffffff1673ffffffffffffffffffffffffffffffffffffffff166108fc829081150290604051600060405180830381858888f19350505050158015611c0b573d6000803e3d6000fd5b507f545fa8e09b7aa32e41eb2a2ece3cdfb1e14707a7bc79c78e749c79ea6b544aee42600660009054906101000a900473ffffffffffffffffffffffffffffffffffffffff1683604051808481526020018373ffffffffffffffffffffffffffffffffffffffff1673ffffffffffffffffffffffffffffffffffffffff168152602001828152602001935050505060405180910390a15b5b50505600a165627a7a723058203d5f919c42e6169197109070471652174512e2030d31bbeb188ce6261f2fb2e80029",
  "source": "pragma solidity ^0.4.24;\n\n//\n\ncontract Contrat {\n  event Signed(uint timestamp, address wallet);\n  event ContractSigned(uint timestamp);\n  event DivorceApproved(uint timestamp, address wallet);\n  event Divorced(uint timestamp);\n  event DivorcedUni(uint timestamp);\n  event FundsSent(uint timestamp, address wallet, uint amount);\n  event FundsReceived(uint timestamp, address wallet, uint amount);\n\n  uint256 public dateDep = block.timestamp ;\n  uint256 public dateSig = 0 ;\n  bool public signed = false;\n  bool public signedByHusband = false;\n  bool public signedByWife = false;\n  bool public divorced = false;\n\n  mapping (address => bool) private hasSigned;\n  mapping (address => bool) private hasDivorced;\n\n  address public husbandAddress;\n  address public wifeAddress;\n\n  // Helper\n  modifier onlySpouse() {\n    require(msg.sender == husbandAddress || msg.sender == wifeAddress, \"\");\n    _;\n  }\n\n   // Modifier pour la multi-signature\n  modifier isSigned() {\n    require(signedByHusband == true || signedByWife == true, \"\");\n    if (signedByHusband && signedByWife){\n      signed = true;\n    } \n    _;\n  }\n\n // Modifier pour la verification divorce\n  modifier isNotDivorced() {\n    require(divorced == false, \"Can not be called after spouses agreed to divorce!\");\n    _;\n  }\n\n  // Helper\n  function isNotSameString(string memory string1, string memory string2) private pure returns (bool) {\n    return keccak256(abi.encodePacked(string1)) != keccak256(abi.encodePacked(string2));\n  }\n\n  // Constructeur\n  constructor(address _husbandAddress, address _wifeAddress) public {\n    require(_husbandAddress != address(0), \"Adresse ne doit pas etre nul\");\n    require(_wifeAddress != address(0), \"Adresse ne doit pas etre nul\");\n    require(_husbandAddress != _wifeAddress, \"Meme adresse\");\n\n    husbandAddress = _husbandAddress;\n    wifeAddress = _wifeAddress;\n  }\n\n  // Payable\n  function() isSigned isNotDivorced external payable{\n    emit FundsReceived(block.timestamp, msg.sender, msg.value);\n  }\n\n\n/* function() external payable isSigned isNotDivorced {\n    emit FundsReceived(now, msg.sender, msg.value);\n  } */\n\n\n  // Signature\n  function signContract() external onlySpouse {\n    require(hasSigned[msg.sender] == false, \"Contrat deja signe\");\n    // Sender signed\n    hasSigned[msg.sender] = true;\n\n    emit Signed(block.timestamp, msg.sender);\n\n    // Verification signature\n    if (hasSigned[husbandAddress]) {\n      signedByWife = true;\n      dateSig = block.timestamp;\n    }\n    if (hasSigned[wifeAddress]) {\n      signedByWife = true;\n      dateSig = block.timestamp;\n    }\n    if (hasSigned[wifeAddress] && hasSigned[husbandAddress]){\n      signed = true;\n      emit ContractSigned(block.timestamp);\n    }\n  }\n\n  // Envoie ETH\n  function pay(address _to, uint _amount) external onlySpouse isSigned isNotDivorced {\n    require(_to != address(0), \"Faut mettre une adresse\");\n    require(_amount <= address(this).balance, \"Solde insuffisant!\");\n\n    _to.transfer(_amount);\n    emit FundsSent(block.timestamp, _to, _amount);\n  }\n\n\n  // Demande divorce, ncessite multi-sig\n  function divorce() external onlySpouse isSigned isNotDivorced {\n    require(hasDivorced[msg.sender] == false, \"\");\n\n    hasDivorced[msg.sender] = true;\n\n    emit DivorceApproved(block.timestamp, msg.sender);\n\n    // Verification divorce\n    if (hasDivorced[husbandAddress] && hasDivorced[wifeAddress]) {\n   \n   \n      divorced = true;\n   \n      emit Divorced(block.timestamp);\n\n      // Solde contrat\n      uint balance = address(this).balance;\n\n      // Solde/2 en cas de divorce\n      if (balance != 0) {\n        uint balancePerSpouse = balance / 2;\n\n        husbandAddress.transfer(balancePerSpouse);\n        emit FundsSent(now, husbandAddress, balancePerSpouse);\n        wifeAddress.transfer(balancePerSpouse);\n        emit FundsSent(now, wifeAddress, balancePerSpouse);\n      }\n    }\n  }\n\n  function UnilateralDivorce() external onlySpouse isSigned isNotDivorced {\n    require(hasDivorced[msg.sender] == false, \"\");\n\n    hasDivorced[msg.sender] = true;\n\n    emit DivorceApproved(block.timestamp, msg.sender);\n    // Verification divorce   \n    divorced = true;\n\n    // Event\n    emit DivorcedUni(block.timestamp);\n      // A changer selon modalit\n      uint balance = address(this).balance;\n      // Solde/2 en cas de divorce\n      if (balance != 0) {\n        uint balancePerSpouse = balance / 2;\n\n        husbandAddress.transfer(balancePerSpouse);\n        emit FundsSent(now, husbandAddress, balancePerSpouse);\n        wifeAddress.transfer(balancePerSpouse);\n        emit FundsSent(now, wifeAddress, balancePerSpouse);\n      }\n  }\n}\n",
  "sourcePath": "/home/over/Desktop/Porjet/vGanache/notaire-ethereum/contracts/Contrat.sol",
  "compiler": {
    "name": "solc",
    "version": "0.4.24+commit.e67f0147.Emscripten.clang"
  },
  "schemaVersion": "3.3.4",
  "updatedAt": "2021-03-18T17:22:59.967Z",
  "networkType": "ethereum",
  "devdoc": {
    "methods": {}
  },
  "userdoc": {
    "methods": {}
  }
}