{
  "contractName": "Contrat",
  "abi": [
    {
      "constant": true,
      "inputs": [],
      "name": "husbandAddress",
      "outputs": [
        {
          "name": "",
          "type": "address"
        }
      ],
      "payable": false,
      "stateMutability": "view",
      "type": "function"
    },
    {
      "constant": true,
      "inputs": [],
      "name": "signed",
      "outputs": [
        {
          "name": "",
          "type": "bool"
        }
      ],
      "payable": false,
      "stateMutability": "view",
      "type": "function"
    },
    {
      "constant": true,
      "inputs": [],
      "name": "divorced",
      "outputs": [
        {
          "name": "",
          "type": "bool"
        }
      ],
      "payable": false,
      "stateMutability": "view",
      "type": "function"
    },
    {
      "constant": true,
      "inputs": [],
      "name": "wifeAddress",
      "outputs": [
        {
          "name": "",
          "type": "address"
        }
      ],
      "payable": false,
      "stateMutability": "view",
      "type": "function"
    },
    {
      "constant": true,
      "inputs": [],
      "name": "dateDep",
      "outputs": [
        {
          "name": "",
          "type": "uint256"
        }
      ],
      "payable": false,
      "stateMutability": "view",
      "type": "function"
    },
    {
      "constant": true,
      "inputs": [],
      "name": "dateSig",
      "outputs": [
        {
          "name": "",
          "type": "uint256"
        }
      ],
      "payable": false,
      "stateMutability": "view",
      "type": "function"
    },
    {
      "inputs": [
        {
          "name": "_husbandAddress",
          "type": "address"
        },
        {
          "name": "_wifeAddress",
          "type": "address"
        }
      ],
      "payable": false,
      "stateMutability": "nonpayable",
      "type": "constructor"
    },
    {
      "payable": true,
      "stateMutability": "payable",
      "type": "fallback"
    },
    {
      "anonymous": false,
      "inputs": [
        {
          "indexed": false,
          "name": "timestamp",
          "type": "uint256"
        },
        {
          "indexed": false,
          "name": "wallet",
          "type": "address"
        }
      ],
      "name": "Signed",
      "type": "event"
    },
    {
      "anonymous": false,
      "inputs": [
        {
          "indexed": false,
          "name": "timestamp",
          "type": "uint256"
        }
      ],
      "name": "ContractSigned",
      "type": "event"
    },
    {
      "anonymous": false,
      "inputs": [
        {
          "indexed": false,
          "name": "timestamp",
          "type": "uint256"
        },
        {
          "indexed": false,
          "name": "wallet",
          "type": "address"
        }
      ],
      "name": "DivorceApproved",
      "type": "event"
    },
    {
      "anonymous": false,
      "inputs": [
        {
          "indexed": false,
          "name": "timestamp",
          "type": "uint256"
        }
      ],
      "name": "Divorced",
      "type": "event"
    },
    {
      "anonymous": false,
      "inputs": [
        {
          "indexed": false,
          "name": "timestamp",
          "type": "uint256"
        },
        {
          "indexed": false,
          "name": "wallet",
          "type": "address"
        },
        {
          "indexed": false,
          "name": "amount",
          "type": "uint256"
        }
      ],
      "name": "FundsSent",
      "type": "event"
    },
    {
      "anonymous": false,
      "inputs": [
        {
          "indexed": false,
          "name": "timestamp",
          "type": "uint256"
        },
        {
          "indexed": false,
          "name": "wallet",
          "type": "address"
        },
        {
          "indexed": false,
          "name": "amount",
          "type": "uint256"
        }
      ],
      "name": "FundsReceived",
      "type": "event"
    },
    {
      "constant": false,
      "inputs": [],
      "name": "signContract",
      "outputs": [],
      "payable": false,
      "stateMutability": "nonpayable",
      "type": "function"
    },
    {
      "constant": false,
      "inputs": [
        {
          "name": "_to",
          "type": "address"
        },
        {
          "name": "_amount",
          "type": "uint256"
        }
      ],
      "name": "pay",
      "outputs": [],
      "payable": false,
      "stateMutability": "nonpayable",
      "type": "function"
    },
    {
      "constant": false,
      "inputs": [],
      "name": "divorce",
      "outputs": [],
      "payable": false,
      "stateMutability": "nonpayable",
      "type": "function"
    }
  ],
  "bytecode": "0x60806040524260005560006001556000600260006101000a81548160ff0219169083151502179055506000600260016101000a81548160ff02191690831515021790555034801561004f57600080fd5b506040516040806117f98339810180604052810190808051906020019092919080519060200190929190505050600073ffffffffffffffffffffffffffffffffffffffff168273ffffffffffffffffffffffffffffffffffffffff1614151515610121576040517f08c379a000000000000000000000000000000000000000000000000000000000815260040180806020018281038252601c8152602001807f41647265737365206e6520646f6974207061732065747265206e756c0000000081525060200191505060405180910390fd5b600073ffffffffffffffffffffffffffffffffffffffff168173ffffffffffffffffffffffffffffffffffffffff16141515156101c6576040517f08c379a000000000000000000000000000000000000000000000000000000000815260040180806020018281038252601c8152602001807f41647265737365206e6520646f6974207061732065747265206e756c0000000081525060200191505060405180910390fd5b8073ffffffffffffffffffffffffffffffffffffffff168273ffffffffffffffffffffffffffffffffffffffff161415151561026a576040517f08c379a000000000000000000000000000000000000000000000000000000000815260040180806020018281038252600c8152602001807f4d656d652061647265737365000000000000000000000000000000000000000081525060200191505060405180910390fd5b81600560006101000a81548173ffffffffffffffffffffffffffffffffffffffff021916908373ffffffffffffffffffffffffffffffffffffffff16021790555080600660006101000a81548173ffffffffffffffffffffffffffffffffffffffff021916908373ffffffffffffffffffffffffffffffffffffffff16021790555050506114fc806102fd6000396000f300608060405260043610610099576000357c0100000000000000000000000000000000000000000000000000000000900463ffffffff1680631c7d5c4214610270578063232a6b9d146102c7578063528e2ee9146102f65780637399a25914610325578063b71fe0bc1461037c578063b8b4f1a0146103a7578063c4076876146103be578063dc7b5ed01461040b578063dff44b2f14610436575b60011515600260009054906101000a900460ff16151514151561014a576040517f08c379a00000000000000000000000000000000000000000000000000000000081526004018080602001828103825260318152602001807f436f6e747261637420686173206e6f74206265656e207369676e65642062792081526020017f626f74682073706f75736573207965742100000000000000000000000000000081525060400191505060405180910390fd5b60001515600260019054906101000a900460ff1615151415156101fb576040517f08c379a00000000000000000000000000000000000000000000000000000000081526004018080602001828103825260328152602001807f43616e206e6f742062652063616c6c65642061667465722073706f757365732081526020017f61677265656420746f206469766f72636521000000000000000000000000000081525060400191505060405180910390fd5b7ffb932f39cc5ea177af75a4f1502d59d13404be49a2edb139943b43e4fb3fe45b423334604051808481526020018373ffffffffffffffffffffffffffffffffffffffff1673ffffffffffffffffffffffffffffffffffffffff168152602001828152602001935050505060405180910390a1005b34801561027c57600080fd5b5061028561044d565b604051808273ffffffffffffffffffffffffffffffffffffffff1673ffffffffffffffffffffffffffffffffffffffff16815260200191505060405180910390f35b3480156102d357600080fd5b506102dc610473565b604051808215151515815260200191505060405180910390f35b34801561030257600080fd5b5061030b610486565b604051808215151515815260200191505060405180910390f35b34801561033157600080fd5b5061033a610499565b604051808273ffffffffffffffffffffffffffffffffffffffff1673ffffffffffffffffffffffffffffffffffffffff16815260200191505060405180910390f35b34801561038857600080fd5b506103916104bf565b6040518082815260200191505060405180910390f35b3480156103b357600080fd5b506103bc6104c5565b005b3480156103ca57600080fd5b50610409600480360381019080803573ffffffffffffffffffffffffffffffffffffffff169060200190929190803590602001909291905050506108b4565b005b34801561041757600080fd5b50610420610d25565b6040518082815260200191505060405180910390f35b34801561044257600080fd5b5061044b610d2b565b005b600560009054906101000a900473ffffffffffffffffffffffffffffffffffffffff1681565b600260009054906101000a900460ff1681565b600260019054906101000a900460ff1681565b600660009054906101000a900473ffffffffffffffffffffffffffffffffffffffff1681565b60005481565b600560009054906101000a900473ffffffffffffffffffffffffffffffffffffffff1673ffffffffffffffffffffffffffffffffffffffff163373ffffffffffffffffffffffffffffffffffffffff16148061056e5750600660009054906101000a900473ffffffffffffffffffffffffffffffffffffffff1673ffffffffffffffffffffffffffffffffffffffff163373ffffffffffffffffffffffffffffffffffffffff16145b15156105e2576040517f08c379a00000000000000000000000000000000000000000000000000000000081526004018080602001828103825260178152602001807f53656e646572206973206e6f7420612073706f7573652100000000000000000081525060200191505060405180910390fd5b60001515600360003373ffffffffffffffffffffffffffffffffffffffff1673ffffffffffffffffffffffffffffffffffffffff16815260200190815260200160002060009054906101000a900460ff1615151415156106aa576040517f08c379a00000000000000000000000000000000000000000000000000000000081526004018080602001828103825260148152602001807f436f6e747261742064c3a96a61207369676ec3a900000000000000000000000081525060200191505060405180910390fd5b6001600360003373ffffffffffffffffffffffffffffffffffffffff1673ffffffffffffffffffffffffffffffffffffffff16815260200190815260200160002060006101000a81548160ff0219169083151502179055507f80bc357386c693c2d6ad5938af6765eacd7d7790c17e39c014ab30def63941654233604051808381526020018273ffffffffffffffffffffffffffffffffffffffff1673ffffffffffffffffffffffffffffffffffffffff1681526020019250505060405180910390a160036000600560009054906101000a900473ffffffffffffffffffffffffffffffffffffffff1673ffffffffffffffffffffffffffffffffffffffff1673ffffffffffffffffffffffffffffffffffffffff16815260200190815260200160002060009054906101000a900460ff168015610853575060036000600660009054906101000a900473ffffffffffffffffffffffffffffffffffffffff1673ffffffffffffffffffffffffffffffffffffffff1673ffffffffffffffffffffffffffffffffffffffff16815260200190815260200160002060009054906101000a900460ff165b156108b2576001600260006101000a81548160ff021916908315150217905550426001819055507faf3c49f5413fd292e2325b0fe214de144a222b00cb6ec21214fdc04b5d6c5913426040518082815260200191505060405180910390a15b565b600560009054906101000a900473ffffffffffffffffffffffffffffffffffffffff1673ffffffffffffffffffffffffffffffffffffffff163373ffffffffffffffffffffffffffffffffffffffff16148061095d5750600660009054906101000a900473ffffffffffffffffffffffffffffffffffffffff1673ffffffffffffffffffffffffffffffffffffffff163373ffffffffffffffffffffffffffffffffffffffff16145b15156109d1576040517f08c379a00000000000000000000000000000000000000000000000000000000081526004018080602001828103825260178152602001807f53656e646572206973206e6f7420612073706f7573652100000000000000000081525060200191505060405180910390fd5b60011515600260009054906101000a900460ff161515141515610a82576040517f08c379a00000000000000000000000000000000000000000000000000000000081526004018080602001828103825260318152602001807f436f6e747261637420686173206e6f74206265656e207369676e65642062792081526020017f626f74682073706f75736573207965742100000000000000000000000000000081525060400191505060405180910390fd5b60001515600260019054906101000a900460ff161515141515610b33576040517f08c379a00000000000000000000000000000000000000000000000000000000081526004018080602001828103825260328152602001807f43616e206e6f742062652063616c6c65642061667465722073706f757365732081526020017f61677265656420746f206469766f72636521000000000000000000000000000081525060400191505060405180910390fd5b600073ffffffffffffffffffffffffffffffffffffffff168273ffffffffffffffffffffffffffffffffffffffff1614151515610bd8576040517f08c379a00000000000000000000000000000000000000000000000000000000081526004018080602001828103825260178152602001807f46617574206d657474726520756e65206164726573736500000000000000000081525060200191505060405180910390fd5b3073ffffffffffffffffffffffffffffffffffffffff16318111151515610c67576040517f08c379a00000000000000000000000000000000000000000000000000000000081526004018080602001828103825260128152602001807f536f6c646520696e737566666973616e7421000000000000000000000000000081525060200191505060405180910390fd5b8173ffffffffffffffffffffffffffffffffffffffff166108fc829081150290604051600060405180830381858888f19350505050158015610cad573d6000803e3d6000fd5b507f545fa8e09b7aa32e41eb2a2ece3cdfb1e14707a7bc79c78e749c79ea6b544aee428383604051808481526020018373ffffffffffffffffffffffffffffffffffffffff1673ffffffffffffffffffffffffffffffffffffffff168152602001828152602001935050505060405180910390a15050565b60015481565b600080600560009054906101000a900473ffffffffffffffffffffffffffffffffffffffff1673ffffffffffffffffffffffffffffffffffffffff163373ffffffffffffffffffffffffffffffffffffffff161480610dd75750600660009054906101000a900473ffffffffffffffffffffffffffffffffffffffff1673ffffffffffffffffffffffffffffffffffffffff163373ffffffffffffffffffffffffffffffffffffffff16145b1515610e4b576040517f08c379a00000000000000000000000000000000000000000000000000000000081526004018080602001828103825260178152602001807f53656e646572206973206e6f7420612073706f7573652100000000000000000081525060200191505060405180910390fd5b60011515600260009054906101000a900460ff161515141515610efc576040517f08c379a00000000000000000000000000000000000000000000000000000000081526004018080602001828103825260318152602001807f436f6e747261637420686173206e6f74206265656e207369676e65642062792081526020017f626f74682073706f75736573207965742100000000000000000000000000000081525060400191505060405180910390fd5b60001515600260019054906101000a900460ff161515141515610fad576040517f08c379a00000000000000000000000000000000000000000000000000000000081526004018080602001828103825260328152602001807f43616e206e6f742062652063616c6c65642061667465722073706f757365732081526020017f61677265656420746f206469766f72636521000000000000000000000000000081525060400191505060405180910390fd5b60001515600460003373ffffffffffffffffffffffffffffffffffffffff1673ffffffffffffffffffffffffffffffffffffffff16815260200190815260200160002060009054906101000a900460ff16151514151561109b576040517f08c379a00000000000000000000000000000000000000000000000000000000081526004018080602001828103825260278152602001807f53656e6465722068617320616c726561647920617070726f76656420746f206481526020017f69766f726365210000000000000000000000000000000000000000000000000081525060400191505060405180910390fd5b6001600460003373ffffffffffffffffffffffffffffffffffffffff1673ffffffffffffffffffffffffffffffffffffffff16815260200190815260200160002060006101000a81548160ff0219169083151502179055507f55b62450d8ea779081e1216bc8db6e1dad18f927f9c844529af3c95f4a12efac4233604051808381526020018273ffffffffffffffffffffffffffffffffffffffff1673ffffffffffffffffffffffffffffffffffffffff1681526020019250505060405180910390a160046000600560009054906101000a900473ffffffffffffffffffffffffffffffffffffffff1673ffffffffffffffffffffffffffffffffffffffff1673ffffffffffffffffffffffffffffffffffffffff16815260200190815260200160002060009054906101000a900460ff168015611244575060046000600660009054906101000a900473ffffffffffffffffffffffffffffffffffffffff1673ffffffffffffffffffffffffffffffffffffffff1673ffffffffffffffffffffffffffffffffffffffff16815260200190815260200160002060009054906101000a900460ff165b156114cc576001600260016101000a81548160ff0219169083151502179055507f839fd4d5fe25cf633a1c009dddc92264a0254dc22f07e958ccf709d0e4a3e6f6426040518082815260200191505060405180910390a13073ffffffffffffffffffffffffffffffffffffffff163191506000821415156114cb576002828115156112cb57fe5b049050600560009054906101000a900473ffffffffffffffffffffffffffffffffffffffff1673ffffffffffffffffffffffffffffffffffffffff166108fc829081150290604051600060405180830381858888f19350505050158015611336573d6000803e3d6000fd5b507f545fa8e09b7aa32e41eb2a2ece3cdfb1e14707a7bc79c78e749c79ea6b544aee42600560009054906101000a900473ffffffffffffffffffffffffffffffffffffffff1683604051808481526020018373ffffffffffffffffffffffffffffffffffffffff1673ffffffffffffffffffffffffffffffffffffffff168152602001828152602001935050505060405180910390a1600660009054906101000a900473ffffffffffffffffffffffffffffffffffffffff1673ffffffffffffffffffffffffffffffffffffffff166108fc829081150290604051600060405180830381858888f19350505050158015611434573d6000803e3d6000fd5b507f545fa8e09b7aa32e41eb2a2ece3cdfb1e14707a7bc79c78e749c79ea6b544aee42600660009054906101000a900473ffffffffffffffffffffffffffffffffffffffff1683604051808481526020018373ffffffffffffffffffffffffffffffffffffffff1673ffffffffffffffffffffffffffffffffffffffff168152602001828152602001935050505060405180910390a15b5b50505600a165627a7a72305820b73ed179c6cc6b08101fecf4eee246a42020f472d09cbd564f0ffd34b3609d560029",
  "source": "pragma solidity ^0.4.24;\n\n//\n\ncontract Contrat {\n  event Signed(uint timestamp, address wallet);\n  event ContractSigned(uint timestamp);\n  event DivorceApproved(uint timestamp, address wallet);\n  event Divorced(uint timestamp);\n  event FundsSent(uint timestamp, address wallet, uint amount);\n  event FundsReceived(uint timestamp, address wallet, uint amount);\n\n  uint256 public dateDep = now ;\n  uint256 public dateSig = 0 ;\n  bool public signed = false;\n  bool public divorced = false;\n\n  mapping (address => bool) private hasSigned;\n  mapping (address => bool) private hasDivorced;\n\n  address public husbandAddress;\n  address public wifeAddress;\n\n  // Helper\n  modifier onlySpouse() {\n    require(msg.sender == husbandAddress || msg.sender == wifeAddress, \"Sender is not a spouse!\");\n    _;\n  }\n\n   // Modifier pour la multi-signature\n  modifier isSigned() {\n    require(signed == true, \"Contract has not been signed by both spouses yet!\");\n    _;\n  }\n\n // Modifier pour la verification divorce\n  modifier isNotDivorced() {\n    require(divorced == false, \"Can not be called after spouses agreed to divorce!\");\n    _;\n  }\n\n  // Helper\n  function isNotSameString(string memory string1, string memory string2) private pure returns (bool) {\n    return keccak256(abi.encodePacked(string1)) != keccak256(abi.encodePacked(string2));\n  }\n\n  // Constructeur\n  constructor(address _husbandAddress, address _wifeAddress) public {\n    require(_husbandAddress != address(0), \"Adresse ne doit pas etre nul\");\n    require(_wifeAddress != address(0), \"Adresse ne doit pas etre nul\");\n    require(_husbandAddress != _wifeAddress, \"Meme adresse\");\n\n    husbandAddress = _husbandAddress;\n    wifeAddress = _wifeAddress;\n  }\n\n  // Payable\n  function() external payable isSigned isNotDivorced {\n    emit FundsReceived(now, msg.sender, msg.value);\n  }\n\n  // Signature\n  function signContract() external onlySpouse {\n    require(hasSigned[msg.sender] == false, \"Contrat déja signé\");\n    // Sender signed\n    hasSigned[msg.sender] = true;\n\n    emit Signed(now, msg.sender);\n\n    // Verification signature\n    if (hasSigned[husbandAddress] && hasSigned[wifeAddress]) {\n      signed = true;\n      dateSig = now;\n      emit ContractSigned(now);\n    }\n  }\n\n  // Envoie ETH\n  function pay(address _to, uint _amount) external onlySpouse isSigned isNotDivorced {\n    require(_to != address(0), \"Faut mettre une adresse\");\n    require(_amount <= address(this).balance, \"Solde insuffisant!\");\n\n    _to.transfer(_amount);\n    emit FundsSent(now, _to, _amount);\n  }\n\n\n  // Demande divorce, nécessite multi-sig\n  function divorce() external onlySpouse isSigned isNotDivorced {\n    require(hasDivorced[msg.sender] == false, \"Sender has already approved to divorce!\");\n\n    hasDivorced[msg.sender] = true;\n\n    emit DivorceApproved(now, msg.sender);\n\n    // Verification divorce\n    if (hasDivorced[husbandAddress] && hasDivorced[wifeAddress]) {\n      divorced = true;\n      emit Divorced(now);\n\n      // Solde contrat\n      uint balance = address(this).balance;\n\n      // Solde/2 en cas de divorce\n      if (balance != 0) {\n        uint balancePerSpouse = balance / 2;\n\n        husbandAddress.transfer(balancePerSpouse);\n        emit FundsSent(now, husbandAddress, balancePerSpouse);\n        wifeAddress.transfer(balancePerSpouse);\n        emit FundsSent(now, wifeAddress, balancePerSpouse);\n      }\n    }\n  }\n}\n",
  "sourcePath": "/Users/baha/Desktop/M1/Projet Annuel/code/contracts/Contrat.sol",
  "compiler": {
    "name": "solc",
    "version": "0.4.24+commit.e67f0147.Emscripten.clang"
  },
  "schemaVersion": "3.3.4",
  "updatedAt": "2021-03-11T18:14:52.330Z",
  "networkType": "ethereum",
  "devdoc": {
    "methods": {}
  },
  "userdoc": {
    "methods": {}
  }
}