{
  "contractName": "Precontrat",
  "abi": [
    {
      "constant": true,
      "inputs": [],
      "name": "addrFemme",
      "outputs": [
        {
          "name": "",
          "type": "string"
        }
      ],
      "payable": false,
      "stateMutability": "view",
      "type": "function"
    },
    {
      "constant": true,
      "inputs": [],
      "name": "divUnilateral",
      "outputs": [
        {
          "name": "",
          "type": "bool"
        }
      ],
      "payable": false,
      "stateMutability": "view",
      "type": "function"
    },
    {
      "constant": true,
      "inputs": [],
      "name": "addrHomme",
      "outputs": [
        {
          "name": "",
          "type": "string"
        }
      ],
      "payable": false,
      "stateMutability": "view",
      "type": "function"
    },
    {
      "constant": true,
      "inputs": [],
      "name": "valSignature",
      "outputs": [
        {
          "name": "",
          "type": "bool"
        }
      ],
      "payable": false,
      "stateMutability": "view",
      "type": "function"
    },
    {
      "inputs": [
        {
          "name": "_addrHomme",
          "type": "string"
        },
        {
          "name": "_addrFemme",
          "type": "string"
        },
        {
          "name": "_divUnilateral",
          "type": "bool"
        },
        {
          "name": "_valSignature",
          "type": "bool"
        }
      ],
      "payable": false,
      "stateMutability": "nonpayable",
      "type": "constructor"
    }
  ],
  "bytecode": "0x608060405234801561001057600080fd5b506040516104e63803806104e683398101806040528101908080518201929190602001805182019291906020018051906020019092919080519060200190929190505050836000908051906020019061006a9291906100bf565b5082600190805190602001906100819291906100bf565b5081600260006101000a81548160ff02191690831515021790555080600260016101000a81548160ff02191690831515021790555050505050610164565b828054600181600116156101000203166002900490600052602060002090601f016020900481019282601f1061010057805160ff191683800117855561012e565b8280016001018555821561012e579182015b8281111561012d578251825591602001919060010190610112565b5b50905061013b919061013f565b5090565b61016191905b8082111561015d576000816000905550600101610145565b5090565b90565b610373806101736000396000f300608060405260043610610062576000357c0100000000000000000000000000000000000000000000000000000000900463ffffffff1680630103deca146100675780633378598f146100f757806377b8805914610126578063977e45a2146101b6575b600080fd5b34801561007357600080fd5b5061007c6101e5565b6040518080602001828103825283818151815260200191508051906020019080838360005b838110156100bc5780820151818401526020810190506100a1565b50505050905090810190601f1680156100e95780820380516001836020036101000a031916815260200191505b509250505060405180910390f35b34801561010357600080fd5b5061010c610283565b604051808215151515815260200191505060405180910390f35b34801561013257600080fd5b5061013b610296565b6040518080602001828103825283818151815260200191508051906020019080838360005b8381101561017b578082015181840152602081019050610160565b50505050905090810190601f1680156101a85780820380516001836020036101000a031916815260200191505b509250505060405180910390f35b3480156101c257600080fd5b506101cb610334565b604051808215151515815260200191505060405180910390f35b60018054600181600116156101000203166002900480601f01602080910402602001604051908101604052809291908181526020018280546001816001161561010002031660029004801561027b5780601f106102505761010080835404028352916020019161027b565b820191906000526020600020905b81548152906001019060200180831161025e57829003601f168201915b505050505081565b600260009054906101000a900460ff1681565b60008054600181600116156101000203166002900480601f01602080910402602001604051908101604052809291908181526020018280546001816001161561010002031660029004801561032c5780601f106103015761010080835404028352916020019161032c565b820191906000526020600020905b81548152906001019060200180831161030f57829003601f168201915b505050505081565b600260019054906101000a900460ff16815600a165627a7a72305820f7f3bff864ee9944ac55bdbb1f32c8726f4b78e4fc12bdb8d76a147c12ad5e020029",
  "source": "pragma solidity ^0.4.24;\n\n\n\ncontract Precontrat {\n  \n  //string public addrHomme;\n  //string public addrFemme;\n  \n  string public addrHomme;\n  string public addrFemme;\n  bool public divUnilateral;\n  bool public valSignature;\n  //bool public sendMoney;\n\n  // a function with the same name as the contract are is a constructor function\n  // initalizes with 'initialMessage' in the inbox\n\n  function Precontrat(string _addrHomme,string _addrFemme, bool _divUnilateral, bool _valSignature) public {\n    addrHomme = _addrHomme;\n    addrFemme = _addrFemme;\n    divUnilateral = _divUnilateral;\n    valSignature = _valSignature;\n  }\n\n}\n\n\n",
  "sourcePath": "/Users/baha/Desktop/M1/Projet Annuel/code/contracts/Precontrat.sol",
  "compiler": {
    "name": "solc",
    "version": "0.4.24+commit.e67f0147.Emscripten.clang"
  },
  "schemaVersion": "3.3.4",
  "updatedAt": "2021-03-18T16:18:56.492Z",
  "networkType": "ethereum",
  "devdoc": {
    "methods": {}
  },
  "userdoc": {
    "methods": {}
  }
}