{
  "contractName": "Precontrat",
  "abi": [
    {
      "constant": true,
      "inputs": [],
      "name": "addrFemme",
      "outputs": [
        {
          "name": "",
          "type": "string"
        }
      ],
      "payable": false,
      "stateMutability": "view",
      "type": "function"
    },
    {
      "constant": true,
      "inputs": [],
      "name": "divUnilateral",
      "outputs": [
        {
          "name": "",
          "type": "bool"
        }
      ],
      "payable": false,
      "stateMutability": "view",
      "type": "function"
    },
    {
      "constant": true,
      "inputs": [],
      "name": "valMtSingature",
      "outputs": [
        {
          "name": "",
          "type": "bool"
        }
      ],
      "payable": false,
      "stateMutability": "view",
      "type": "function"
    },
    {
      "constant": true,
      "inputs": [],
      "name": "addrHomme",
      "outputs": [
        {
          "name": "",
          "type": "string"
        }
      ],
      "payable": false,
      "stateMutability": "view",
      "type": "function"
    },
    {
      "constant": true,
      "inputs": [],
      "name": "dateDep",
      "outputs": [
        {
          "name": "",
          "type": "uint256"
        }
      ],
      "payable": false,
      "stateMutability": "view",
      "type": "function"
    },
    {
      "inputs": [
        {
          "name": "_addrHomme",
          "type": "string"
        },
        {
          "name": "_addrFemme",
          "type": "string"
        },
        {
          "name": "_divUnilateral",
          "type": "bool"
        },
        {
          "name": "_valMtSingature",
          "type": "bool"
        }
      ],
      "payable": false,
      "stateMutability": "nonpayable",
      "type": "constructor"
    }
  ],
  "bytecode": "0x60806040524260035534801561001457600080fd5b5060405161052638038061052683398101806040528101908080518201929190602001805182019291906020018051906020019092919080519060200190929190505050836000908051906020019061006e9291906100c3565b5082600190805190602001906100859291906100c3565b5081600260006101000a81548160ff02191690831515021790555080600260016101000a81548160ff02191690831515021790555050505050610168565b828054600181600116156101000203166002900490600052602060002090601f016020900481019282601f1061010457805160ff1916838001178555610132565b82800160010185558215610132579182015b82811115610131578251825591602001919060010190610116565b5b50905061013f9190610143565b5090565b61016591905b80821115610161576000816000905550600101610149565b5090565b90565b6103af806101776000396000f30060806040526004361061006d576000357c0100000000000000000000000000000000000000000000000000000000900463ffffffff1680630103deca146100725780633378598f146101025780633421c5a51461013157806377b8805914610160578063b71fe0bc146101f0575b600080fd5b34801561007e57600080fd5b5061008761021b565b6040518080602001828103825283818151815260200191508051906020019080838360005b838110156100c75780820151818401526020810190506100ac565b50505050905090810190601f1680156100f45780820380516001836020036101000a031916815260200191505b509250505060405180910390f35b34801561010e57600080fd5b506101176102b9565b604051808215151515815260200191505060405180910390f35b34801561013d57600080fd5b506101466102cc565b604051808215151515815260200191505060405180910390f35b34801561016c57600080fd5b506101756102df565b6040518080602001828103825283818151815260200191508051906020019080838360005b838110156101b557808201518184015260208101905061019a565b50505050905090810190601f1680156101e25780820380516001836020036101000a031916815260200191505b509250505060405180910390f35b3480156101fc57600080fd5b5061020561037d565b6040518082815260200191505060405180910390f35b60018054600181600116156101000203166002900480601f0160208091040260200160405190810160405280929190818152602001828054600181600116156101000203166002900480156102b15780601f10610286576101008083540402835291602001916102b1565b820191906000526020600020905b81548152906001019060200180831161029457829003601f168201915b505050505081565b600260009054906101000a900460ff1681565b600260019054906101000a900460ff1681565b60008054600181600116156101000203166002900480601f0160208091040260200160405190810160405280929190818152602001828054600181600116156101000203166002900480156103755780601f1061034a57610100808354040283529160200191610375565b820191906000526020600020905b81548152906001019060200180831161035857829003601f168201915b505050505081565b600354815600a165627a7a7230582065a923a1f18e0eb45851fb1e1135a131c9c691a583f78fa930367ad872b33cab0029",
  "source": "pragma solidity ^0.4.24;\n\n\n\ncontract Precontrat {\n  \n  //string public addrHomme;\n  //string public addrFemme;\n  \n  string public addrHomme;\n  string public addrFemme;\n  bool public divUnilateral;\n  bool public valMtSingature;\n  uint256 public dateDep = block.timestamp ;\n\n\n  // a function with the same name as the contract are is a constructor function\n  // initalizes with 'initialMessage' in the inbox\n\n  function Precontrat(string _addrHomme,string _addrFemme, bool _divUnilateral,bool _valMtSingature) public {\n    addrHomme = _addrHomme;\n    addrFemme = _addrFemme;\n    divUnilateral = _divUnilateral;\n    valMtSingature = _valMtSingature;\n  }\n\n}\n\n\n",
  "sourcePath": "/Users/baha/Desktop/M1/Projet Annuel/code/contracts/Precontrat.sol",
  "compiler": {
    "name": "solc",
    "version": "0.4.24+commit.e67f0147.Emscripten.clang"
  },
  "schemaVersion": "3.3.4",
  "updatedAt": "2021-03-17T22:15:05.300Z",
  "networkType": "ethereum",
  "devdoc": {
    "methods": {}
  },
  "userdoc": {
    "methods": {}
  }
}